{
	"data": {
		"bytecode": {
			"linkReferences": {},
			"object": "6080604052600080556040518060400160405280600b81526020017f68656c6c6f20776f726c6400000000000000000000000000000000000000000081525060019080519060200190610053929190610066565b5034801561006057600080fd5b5061016a565b82805461007290610109565b90600052602060002090601f01602090048101928261009457600085556100db565b82601f106100ad57805160ff19168380011785556100db565b828001600101855582156100db579182015b828111156100da5782518255916020019190600101906100bf565b5b5090506100e891906100ec565b5090565b5b808211156101055760008160009055506001016100ed565b5090565b6000600282049050600182168061012157607f821691505b602082108114156101355761013461013b565b5b50919050565b7f4e487b7100000000000000000000000000000000000000000000000000000000600052602260045260246000fd5b610337806101796000396000f3fe608060405234801561001057600080fd5b50600436106100415760003560e01c806306661abd1461004657806306fdde0314610064578063e5071b8e14610082575b600080fd5b61004e61008c565b60405161005b91906101a3565b60405180910390f35b61006c610092565b6040516100799190610181565b60405180910390f35b61008a610120565b005b60005481565b6001805461009f90610217565b80601f01602080910402602001604051908101604052809291908181526020018280546100cb90610217565b80156101185780601f106100ed57610100808354040283529160200191610118565b820191906000526020600020905b8154815290600101906020018083116100fb57829003601f168201915b505050505081565b60008081548092919061013290610249565b9190505550565b6000610144826101be565b61014e81856101c9565b935061015e8185602086016101e4565b610167816102f0565b840191505092915050565b61017b816101da565b82525050565b6000602082019050818103600083015261019b8184610139565b905092915050565b60006020820190506101b86000830184610172565b92915050565b600081519050919050565b600082825260208201905092915050565b6000819050919050565b60005b838110156102025780820151818401526020810190506101e7565b83811115610211576000848401525b50505050565b6000600282049050600182168061022f57607f821691505b60208210811415610243576102426102c1565b5b50919050565b6000610254826101da565b91507fffffffffffffffffffffffffffffffffffffffffffffffffffffffffffffffff82141561028757610286610292565b5b600182019050919050565b7f4e487b7100000000000000000000000000000000000000000000000000000000600052601160045260246000fd5b7f4e487b7100000000000000000000000000000000000000000000000000000000600052602260045260246000fd5b6000601f19601f830116905091905056fea2646970667358221220308eebbd3de7fa06d4654362e8071c05b4d3563d415311145a3df2fc2651e8d164736f6c63430008040033",
			"opcodes": "PUSH1 0x80 PUSH1 0x40 MSTORE PUSH1 0x0 DUP1 SSTORE PUSH1 0x40 MLOAD DUP1 PUSH1 0x40 ADD PUSH1 0x40 MSTORE DUP1 PUSH1 0xB DUP2 MSTORE PUSH1 0x20 ADD PUSH32 0x68656C6C6F20776F726C64000000000000000000000000000000000000000000 DUP2 MSTORE POP PUSH1 0x1 SWAP1 DUP1 MLOAD SWAP1 PUSH1 0x20 ADD SWAP1 PUSH2 0x53 SWAP3 SWAP2 SWAP1 PUSH2 0x66 JUMP JUMPDEST POP CALLVALUE DUP1 ISZERO PUSH2 0x60 JUMPI PUSH1 0x0 DUP1 REVERT JUMPDEST POP PUSH2 0x16A JUMP JUMPDEST DUP3 DUP1 SLOAD PUSH2 0x72 SWAP1 PUSH2 0x109 JUMP JUMPDEST SWAP1 PUSH1 0x0 MSTORE PUSH1 0x20 PUSH1 0x0 KECCAK256 SWAP1 PUSH1 0x1F ADD PUSH1 0x20 SWAP1 DIV DUP2 ADD SWAP3 DUP3 PUSH2 0x94 JUMPI PUSH1 0x0 DUP6 SSTORE PUSH2 0xDB JUMP JUMPDEST DUP3 PUSH1 0x1F LT PUSH2 0xAD JUMPI DUP1 MLOAD PUSH1 0xFF NOT AND DUP4 DUP1 ADD OR DUP6 SSTORE PUSH2 0xDB JUMP JUMPDEST DUP3 DUP1 ADD PUSH1 0x1 ADD DUP6 SSTORE DUP3 ISZERO PUSH2 0xDB JUMPI SWAP2 DUP3 ADD JUMPDEST DUP3 DUP2 GT ISZERO PUSH2 0xDA JUMPI DUP3 MLOAD DUP3 SSTORE SWAP2 PUSH1 0x20 ADD SWAP2 SWAP1 PUSH1 0x1 ADD SWAP1 PUSH2 0xBF JUMP JUMPDEST JUMPDEST POP SWAP1 POP PUSH2 0xE8 SWAP2 SWAP1 PUSH2 0xEC JUMP JUMPDEST POP SWAP1 JUMP JUMPDEST JUMPDEST DUP1 DUP3 GT ISZERO PUSH2 0x105 JUMPI PUSH1 0x0 DUP2 PUSH1 0x0 SWAP1 SSTORE POP PUSH1 0x1 ADD PUSH2 0xED JUMP JUMPDEST POP SWAP1 JUMP JUMPDEST PUSH1 0x0 PUSH1 0x2 DUP3 DIV SWAP1 POP PUSH1 0x1 DUP3 AND DUP1 PUSH2 0x121 JUMPI PUSH1 0x7F DUP3 AND SWAP2 POP JUMPDEST PUSH1 0x20 DUP3 LT DUP2 EQ ISZERO PUSH2 0x135 JUMPI PUSH2 0x134 PUSH2 0x13B JUMP JUMPDEST JUMPDEST POP SWAP2 SWAP1 POP JUMP JUMPDEST PUSH32 0x4E487B7100000000000000000000000000000000000000000000000000000000 PUSH1 0x0 MSTORE PUSH1 0x22 PUSH1 0x4 MSTORE PUSH1 0x24 PUSH1 0x0 REVERT JUMPDEST PUSH2 0x337 DUP1 PUSH2 0x179 PUSH1 0x0 CODECOPY PUSH1 0x0 RETURN INVALID PUSH1 0x80 PUSH1 0x40 MSTORE CALLVALUE DUP1 ISZERO PUSH2 0x10 JUMPI PUSH1 0x0 DUP1 REVERT JUMPDEST POP PUSH1 0x4 CALLDATASIZE LT PUSH2 0x41 JUMPI PUSH1 0x0 CALLDATALOAD PUSH1 0xE0 SHR DUP1 PUSH4 0x6661ABD EQ PUSH2 0x46 JUMPI DUP1 PUSH4 0x6FDDE03 EQ PUSH2 0x64 JUMPI DUP1 PUSH4 0xE5071B8E EQ PUSH2 0x82 JUMPI JUMPDEST PUSH1 0x0 DUP1 REVERT JUMPDEST PUSH2 0x4E PUSH2 0x8C JUMP JUMPDEST PUSH1 0x40 MLOAD PUSH2 0x5B SWAP2 SWAP1 PUSH2 0x1A3 JUMP JUMPDEST PUSH1 0x40 MLOAD DUP1 SWAP2 SUB SWAP1 RETURN JUMPDEST PUSH2 0x6C PUSH2 0x92 JUMP JUMPDEST PUSH1 0x40 MLOAD PUSH2 0x79 SWAP2 SWAP1 PUSH2 0x181 JUMP JUMPDEST PUSH1 0x40 MLOAD DUP1 SWAP2 SUB SWAP1 RETURN JUMPDEST PUSH2 0x8A PUSH2 0x120 JUMP JUMPDEST STOP JUMPDEST PUSH1 0x0 SLOAD DUP2 JUMP JUMPDEST PUSH1 0x1 DUP1 SLOAD PUSH2 0x9F SWAP1 PUSH2 0x217 JUMP JUMPDEST DUP1 PUSH1 0x1F ADD PUSH1 0x20 DUP1 SWAP2 DIV MUL PUSH1 0x20 ADD PUSH1 0x40 MLOAD SWAP1 DUP2 ADD PUSH1 0x40 MSTORE DUP1 SWAP3 SWAP2 SWAP1 DUP2 DUP2 MSTORE PUSH1 0x20 ADD DUP3 DUP1 SLOAD PUSH2 0xCB SWAP1 PUSH2 0x217 JUMP JUMPDEST DUP1 ISZERO PUSH2 0x118 JUMPI DUP1 PUSH1 0x1F LT PUSH2 0xED JUMPI PUSH2 0x100 DUP1 DUP4 SLOAD DIV MUL DUP4 MSTORE SWAP2 PUSH1 0x20 ADD SWAP2 PUSH2 0x118 JUMP JUMPDEST DUP3 ADD SWAP2 SWAP1 PUSH1 0x0 MSTORE PUSH1 0x20 PUSH1 0x0 KECCAK256 SWAP1 JUMPDEST DUP2 SLOAD DUP2 MSTORE SWAP1 PUSH1 0x1 ADD SWAP1 PUSH1 0x20 ADD DUP1 DUP4 GT PUSH2 0xFB JUMPI DUP3 SWAP1 SUB PUSH1 0x1F AND DUP3 ADD SWAP2 JUMPDEST POP POP POP POP POP DUP2 JUMP JUMPDEST PUSH1 0x0 DUP1 DUP2 SLOAD DUP1 SWAP3 SWAP2 SWAP1 PUSH2 0x132 SWAP1 PUSH2 0x249 JUMP JUMPDEST SWAP2 SWAP1 POP SSTORE POP JUMP JUMPDEST PUSH1 0x0 PUSH2 0x144 DUP3 PUSH2 0x1BE JUMP JUMPDEST PUSH2 0x14E DUP2 DUP6 PUSH2 0x1C9 JUMP JUMPDEST SWAP4 POP PUSH2 0x15E DUP2 DUP6 PUSH1 0x20 DUP7 ADD PUSH2 0x1E4 JUMP JUMPDEST PUSH2 0x167 DUP2 PUSH2 0x2F0 JUMP JUMPDEST DUP5 ADD SWAP2 POP POP SWAP3 SWAP2 POP POP JUMP JUMPDEST PUSH2 0x17B DUP2 PUSH2 0x1DA JUMP JUMPDEST DUP3 MSTORE POP POP JUMP JUMPDEST PUSH1 0x0 PUSH1 0x20 DUP3 ADD SWAP1 POP DUP2 DUP2 SUB PUSH1 0x0 DUP4 ADD MSTORE PUSH2 0x19B DUP2 DUP5 PUSH2 0x139 JUMP JUMPDEST SWAP1 POP SWAP3 SWAP2 POP POP JUMP JUMPDEST PUSH1 0x0 PUSH1 0x20 DUP3 ADD SWAP1 POP PUSH2 0x1B8 PUSH1 0x0 DUP4 ADD DUP5 PUSH2 0x172 JUMP JUMPDEST SWAP3 SWAP2 POP POP JUMP JUMPDEST PUSH1 0x0 DUP2 MLOAD SWAP1 POP SWAP2 SWAP1 POP JUMP JUMPDEST PUSH1 0x0 DUP3 DUP3 MSTORE PUSH1 0x20 DUP3 ADD SWAP1 POP SWAP3 SWAP2 POP POP JUMP JUMPDEST PUSH1 0x0 DUP2 SWAP1 POP SWAP2 SWAP1 POP JUMP JUMPDEST PUSH1 0x0 JUMPDEST DUP4 DUP2 LT ISZERO PUSH2 0x202 JUMPI DUP1 DUP3 ADD MLOAD DUP2 DUP5 ADD MSTORE PUSH1 0x20 DUP2 ADD SWAP1 POP PUSH2 0x1E7 JUMP JUMPDEST DUP4 DUP2 GT ISZERO PUSH2 0x211 JUMPI PUSH1 0x0 DUP5 DUP5 ADD MSTORE JUMPDEST POP POP POP POP JUMP JUMPDEST PUSH1 0x0 PUSH1 0x2 DUP3 DIV SWAP1 POP PUSH1 0x1 DUP3 AND DUP1 PUSH2 0x22F JUMPI PUSH1 0x7F DUP3 AND SWAP2 POP JUMPDEST PUSH1 0x20 DUP3 LT DUP2 EQ ISZERO PUSH2 0x243 JUMPI PUSH2 0x242 PUSH2 0x2C1 JUMP JUMPDEST JUMPDEST POP SWAP2 SWAP1 POP JUMP JUMPDEST PUSH1 0x0 PUSH2 0x254 DUP3 PUSH2 0x1DA JUMP JUMPDEST SWAP2 POP PUSH32 0xFFFFFFFFFFFFFFFFFFFFFFFFFFFFFFFFFFFFFFFFFFFFFFFFFFFFFFFFFFFFFFFF DUP3 EQ ISZERO PUSH2 0x287 JUMPI PUSH2 0x286 PUSH2 0x292 JUMP JUMPDEST JUMPDEST PUSH1 0x1 DUP3 ADD SWAP1 POP SWAP2 SWAP1 POP JUMP JUMPDEST PUSH32 0x4E487B7100000000000000000000000000000000000000000000000000000000 PUSH1 0x0 MSTORE PUSH1 0x11 PUSH1 0x4 MSTORE PUSH1 0x24 PUSH1 0x0 REVERT JUMPDEST PUSH32 0x4E487B7100000000000000000000000000000000000000000000000000000000 PUSH1 0x0 MSTORE PUSH1 0x22 PUSH1 0x4 MSTORE PUSH1 0x24 PUSH1 0x0 REVERT JUMPDEST PUSH1 0x0 PUSH1 0x1F NOT PUSH1 0x1F DUP4 ADD AND SWAP1 POP SWAP2 SWAP1 POP JUMP INVALID LOG2 PUSH5 0x6970667358 0x22 SLT KECCAK256 ADDRESS DUP15 0xEB 0xBD RETURNDATASIZE 0xE7 STATICCALL MOD 0xD4 PUSH6 0x4362E8071C05 0xB4 0xD3 JUMP RETURNDATASIZE COINBASE MSTORE8 GT EQ GAS RETURNDATASIZE CALLCODE 0xFC 0x26 MLOAD 0xE8 0xD1 PUSH5 0x736F6C6343 STOP ADDMOD DIV STOP CALLER "
		},
		"gasEstimates": {
			"creation": {
				"codeDepositCost": "164600",
				"executionCost": "infinite",
				"totalCost": "infinite"
			},
			"external": {
				"count()": "1107",
				"incrementCount()": "21126",
				"name()": "infinite"
			}
		},
		"methodIdentifiers": {
			"count()": "06661abd",
			"incrementCount()": "e5071b8e",
			"name()": "06fdde03"
		}
	},
	"abi": [
		{
			"inputs": [],
			"name": "count",
			"outputs": [
				{
					"internalType": "uint256",
					"name": "",
					"type": "uint256"
				}
			],
			"stateMutability": "view",
			"type": "function"
		},
		{
			"inputs": [],
			"name": "incrementCount",
			"outputs": [],
			"stateMutability": "nonpayable",
			"type": "function"
		},
		{
			"inputs": [],
			"name": "name",
			"outputs": [
				{
					"internalType": "string",
					"name": "",
					"type": "string"
				}
			],
			"stateMutability": "view",
			"type": "function"
		}
	]
}